:020000040800F2
:10000000F0430020590200086F1F0008B71D0008C8
:100010006D1F0008C50300089526000800000000B9
:100020000000000000000000000000009D0100082A
:100030003104000800000000F101000869200008F8
:1000400073020008730200087302000873020008BC
:1000500073020008730200080D080008730200080C
:10006000730200087302000873020008730200089C
:10007000730200087302000873020008730200088C
:10008000730200087302000873020008730200087C
:100090007302000873020008730200083D0800089C
:1000A000730200087302000873020008730200085C
:1000B000730200087302000873020008730200084C
:1000C000730200087302000873020008730200083C
:1000D00073020008730200087D26000889260008C4
:1000E000730200087302000873020008730200081C
:1000F000730200087302000873020008730200080C
:1001000073020008730200087302000873020008FB
:1001100073020008730200088521000873020008BA
:1001200073020008730200087302000873020008DB
:1001300073020008730200087302000873020008CB
:1001400073020008730200087302000873020008BB
:1001500073020008730200087302000873020008AB
:10016000730200087302000873020008730200089B
:100170007302000873020008730200080000000008
:100180007302000873020008DFF80CD000F008F9D1
:1001900000480047592E0008F04300202B4B1968F7
:1001A0000868B0E8F04F80F30988BFF36F8F4FF015
:1001B000000080F3118870470000000006480068C6
:1001C000006880F3088862B661B6BFF34F8FBFF353
:1001D0006F8F00DF00BF00BF08ED00E0DFF80C000C
:1001E000016841F470010160704700BF88ED00E0D4
:1001F000EFF30980BFF36F8F144B1A681EF0100FD6
:1002000008BF20ED108A20E9F04F106008B44FF0CD
:10021000500080F31188BFF34F8FBFF36F8F04F04E
:100220004FF84FF0000080F3118808BC1968086887
:10023000B0E8F04F1EF0100F08BFB0EC108A80F34A
:100240000988BFF36F8F704700BF00BF70000020A8
:10025000EFF30580704700000648804706480047D6
:10026000FEE7FEE7FEE7FEE7FEE7FEE7FEE7FEE766
:10027000FEE7FEE731210008890100082DE9F05F63
:100280000546002092469B46884606468146402405
:100290001BE0284641464746224600F070F8534688
:1002A0005A46C01A914110D311461846224600F012
:1002B00057F82D1A67EB01084F462246012000210E
:1002C00000F04EF817EB00094E41201EA4F1010486
:1002D000DFDC484631462A464346BDE8F09F40EA07
:1002E00001039B0703D009E008C9121F08C0042AB4
:1002F000FAD203E011F8013B00F8013B521EF9D29B
:100300007047D2B201E000F8012B491EFBD27047C2
:100310000022F6E710B513460A4604461946FFF7D1
:10032000F0FF204610BD421C10F8011B0029FBD134
:10033000801A704730B50B46014600202022012468
:1003400009E021FA02F59D4205D303FA02F5491BA3
:1003500004FA02F52844151EA2F10102F1DC30BDB9
:10036000202A04DB203A00FA02F100207047914075
:10037000C2F1200320FA03F3194390407047202A6A
:1003800004DB203A21FA02F00021704721FA02F33F
:10039000D040C2F120029140084319467047000046
:1003A000064C074D06E0E06840F0010394E80700C2
:1003B00098471034AC42F6D3FFF7EAFE144E00081B
:1003C000344E0008FEE7000003490120087003488E
:1003D000006B03F02FB800005B0000201800002025
:1003E00010B50FA002F066F90F4C4FF48051204673
:1003F00000F017FD4FF40051204600F012FD4FF4BD
:100400008041204600F00DFD4FF40041204600F0F1
:1004100008FD0648406BBDE8104003F00BB8000033
:100420006869696900000000000C024018000020A3
:100430007047000002F03AFC034900204870012098
:1004400002F082FFFBE70000180000200C490A8838
:100450000C49098860B1012810D14EF6EE6009B14F
:100460001AB107E0824209D006E0814204D005E0DB
:1004700022B109B1AB2070470120704700207047BE
:100480000080000800C0000810B586B0002005906C
:10049000009002200121124CCDE902010490204677
:1004A00000F094F928B905A9684600F025FB00285A
:1004B00014D1002213462146012000F073FB0028CE
:1004C0000CD103200290074800F080F928B905A953
:1004D000684600F011FB002800D1002006B010BDD6
:1004E0000080000800C000082DE9F04F87B05D4F84
:1004F000002405943988661EDFF86CA1BAF8000064
:1005000002254FF00108CDE90258584A584B009493
:100510004FF003094FF6FF7C049500296BD0A1F63C
:10052000EE61B1F5604122D001F6EF61B1F5005FF7
:100530001AD140B1A0F56E41EE3915D1384600F020
:1005400045F938B10CE038465CE005A9684600F092
:10055000D3FA4AE005A9684600F0CEFA002847D150
:100560000022134651463DE0FFF78EFF3DE040B1CB
:100570006045F9D15046CDF8089000F027F940B316
:100580002DE09346FA883BF81400824200D126B24F
:10059000B4420CD0364900F0C9F8012807D03449DC
:1005A0003BF81400098800F0E5F8002820D1641C0D
:1005B000A4B2032CE6D3002213463946012000F0F2
:1005C000F1FA002814D1CDF80890CDE90385504602
:1005D00018E005A9684600F08FFA002808D100222B
:1005E00013463946012000F0DDFA002800D1002032
:1005F00007B0BDE8F08F0028B6D0604507D150465F
:10060000CDF8089000F0E2F800289ED0EFE7914680
:100610004FEA030BBAF8061039F81420914200D1C2
:1006200026B2B4420DD01249104600F07FF80128DE
:1006300007D039F81400BBF8001000F09BF8002830
:10064000D6D1641CA4B2032CE4D300221346514635
:10065000012000F0A7FA0028CAD1CDE9025804957C
:1006600071E700000080000800C00008540000206E
:10067000140000202DE9F047002486B00646884685
:10068000264DA14620460594FFF7E0FE012804D040
:1006900028B1AB2006B0BDE8F087032701E0204D6C
:1006A00002274EF6EE6200232946012000F07AFA76
:1006B0000028EFD14146304600F05CF80028E9D12F
:1006C000DFF86080DFF860A038F81420B2420DD067
:1006D0001549104600F02AF8012807D038F8140010
:1006E000BAF8001000F046F80028D3D1641CA4B278
:1006F000032CE9D30120CDE9027002200490CDF84B
:10070000009005A9684600F0F7F90028C2D1002240
:1007100013462946012000F045FABBE70080000897
:1007200000C0000854000020140000202DE9F04112
:1007300006460D4601240D4F0020FFF787FEAB282B
:1007400012D00B4A07EB803102EB8032891C08E0A3
:100750001088B04204D132F8020C2880002402E054
:10076000121F8A42F4D82046BDE8F08100800008BC
:10077000FEBF000870B506460D46124C0120FFF77B
:1007800065FEAB280CD0104904EB803401EB8030BF
:1007900003E02168491C04D0241D8442F9D3802041
:1007A00070BD2A4600232146012000F0FBF90028F5
:1007B000F6D1A11C3246BDE870400023012000F0B4
:1007C000F1B9000000800008FFBF000810B501214A
:1007D0004FF6FF74054B05E00288A24201D00021CC
:1007E00002E0001D9842F7D9084610BDFFBF00087F
:1007F00070B50C460546FFF7BDFF802805D12146A0
:100800002846BDE87040FFF735BF70BD10B5012028
:1008100000F01EFA074901200246887001030648CD
:1008200000F003FB322000F055F9BDE8104000F065
:10083000BDBB00005A000020000C0240154810B556
:100840000121017000214170402000F001FA802058
:1008500000F0FEF94FF4807000F0FAF94FF40070E8
:1008600000F0F6F90C4C01221146204600F0DDFAAA
:1008700001220221204600F0D8FA0122042120465C
:1008800000F0D3FA20460122BDE81040082100F014
:10089000CCBA00005A000020000C0240002229B10E
:1008A00001291AD002291BD04FF440720E490B685F
:1008B00023F440730B600B6813430B600A6822F04B
:1008C000F8020A600A68022303EBC00002430A60D0
:1008D000086840F48030086070474FF48072E5E7A4
:1008E0004FF40072E2E70000103C02401348016838
:1008F00089050FD5016821F400710160016841F498
:1009000000610160016821F400610160016841F447
:1009100000710160016849050FD5016821F480610B
:100920000160016841F480510160016821F4805147
:100930000160016841F4806101607047003C024041
:1009400008490A6822F440720A600A6842F0040208
:100950000A600A684FF4803343EA002002430A60C9
:1009600070470000103C0240064A136823F44073AD
:10097000136013681360136843F001031360017080
:1009800070470000103C0240084910B50C6824F480
:1009900040740C600C6844F440740C600C6844F0C3
:1009A00001040C600260436010BD0000103C024076
:1009B000074A136823F440731360136843F4807389
:1009C0001360136843F00103136001807047000057
:1009D000103C0240074A136823F440731360136805
:1009E00043F400731360136843F001031360016064
:1009F00070470000103C024017490868C2061748BB
:100A000005D5C26942F01002C26110220A600A686C
:100A1000920605D5C26942F00802C26120220A602E
:100A20000A68520605D5C26942F00402C26140223A
:100A30000A600A68120605D5C26942F00202C26164
:100A400080220A600A68920705D5C26942F0200236
:100A5000C2610220086070470C3C02407402002012
:100A600070B5114904460020C86100F0E3F906465C
:100A70000E4D09E0601C07D024B100F0DBF9801BAB
:100A8000A04201D9032070BD2868C003F2D42868B1
:100A9000C00701D001202860286810F0F200F2D0D1
:100AA000FFF7AAFF012070BD740200200C3C024039
:100AB00090F83510022903D080214165012070474C
:100AC000052180F835100068016821F001010160FE
:100AD0000020704770B5044600F0ACF90546601C74
:100AE00002D004480078044400F0A4F9401BA0425E
:100AF000FAD370BD600000202DE9F047044622487B
:100B00000F46017E01290AD00121804601764CF270
:100B100050394846FFF7A4FF020003D02FE002201F
:100B2000BDE8F0874FF0FF3038602068174D01288E
:100B300001D0A6681CE0207C6168FFF701FF4846F1
:100B4000FFF78EFF0246286820F00400286014E0BA
:100B5000217C3046FFF7A2FE4846FFF781FF0200E6
:100B6000286820F0FA00286001D03E6005E0761C7D
:100B7000D4E902100844B042EAD8FFF7B7FE0021DA
:100B800088F818101046CBE774020020103C024091
:100B90000348016841F000410160002070470000F7
:100BA000103C02402DE9F0471B4E05461446307EAE
:100BB0001F468946012808D0012030764CF2503873
:100BC0004046FFF74DFF18B114E00220BDE8F08762
:100BD0009DB1012D16D0022D19D022463B46484624
:100BE000FFF7D2FE4046FFF73BFF0C490A6822F0B0
:100BF00001020A6000213176E8E7E1B24846FFF7DA
:100C0000B3FEEFE7A1B24846FFF7D2FEEAE721467E
:100C10004846FFF7DFFEE5E774020020103C024083
:100C2000074900200A68002A09DA054A054B0C3AF0
:100C30001360054B13600968002900DA0120704732
:100C4000103C024023016745AB89EFCD704700009F
:100C5000044910B50A68024202D00860FFF7F6FFA7
:100C600010BD0000143C01402DE9F84FDFF87CB1C5
:100C700000224FF001084FF0030A4FF00F090BF16B
:100C8000040E00BF0B6808FA02F42340A3426ED1A1
:100C90004D68022D01D0122D0ED1D50800EB850C28
:100CA000DCF820505607F70E09FA07F6B5430E692F
:100CB000BE402E43CCF82060066855000F790AFA32
:100CC00005FC07F0030726EA0C06AF403743076030
:100CD0004E68012E05D0022E03D0112E01D0122E07
:100CE0000ED18668CF6826EA0C06AF40374387608E
:100CF0004668A6430C79C4F300149440344344601E
:100D0000C6688C6826EA0C06AC403443C4604C6864
:100D1000E40065D5364C256845F480452560246897
:100D200022F0030504F480440094324C2E19D6F8C6
:100D3000084895072F0F09FA07F5AC432E4DA84236
:100D400001D1002524E02D4DA84201D101251FE04D
:100D50002B4DA84201D102251AE02A4DA84201D10B
:100D6000032515E0284DA84202D1042510E037E004
:100D7000264DA84201D105250AE0254DA84201D102
:100D8000062505E0234DA84201D1072500E00825EE
:100D9000BD402543C6F80858DBF800405D464E6864
:100DA0009C43F60300D51C432C60DEF800407546DA
:100DB0004E689C43B60300D51C432C600B4D083590
:100DC0002C684E689C43F60200D51C432C60074DEE
:100DD0000C352C684E689C43B60200D51C432C6031
:100DE000521C102AFFF44EAFBDE8F88F003C0140C2
:100DF000443802400030014000000240000402403C
:100E000000080240000C02400010024000140240A2
:100E100000180240001C02400069084000D0012078
:100E2000704742694A40426170470AB18161704728
:100E30000904FBE70148806870470000600000205B
:100E40000248816802781144816070476000002088
:100E50000B4810B5016841F400710160016841F46C
:100E600080610160016841F480710160032000F03D
:100E70008BF8002000F006F800F03EF8002010BDCE
:100E8000003C024010B5014688B00022362000F038
:100E90005BF8362000F04CF813480024016841F05C
:100EA00010010160006805A900F010000690684676
:100EB00000F0C4F900F0E2F90C494000B0FBF1F198
:100EC0000C480B4A491E026040F2E732C0E9032495
:100ED000C0E9011400F00BFD10B1012008B010BDF5
:100EE000044800F020FDF9E74038024040420F007E
:100EF00000100040380200200C4882B0016841F424
:100F000080410160006800F4804000900748001FA5
:100F1000016841F0805101600068002200F08050BB
:100F200000900F21901E02B000F00EB8443802402D
:100F300000F01F02012191404009800000F1E020F3
:100F4000C0F8001170470000F0B40E4B1B680C464F
:100F5000C3F30223C3F10705042D00D90425191D8D
:100F6000072901D2002300E0DB1E012606FA05F165
:100F7000491E214099409E40761E16403143F0BCE8
:100F800000F0F6BF0CED00E0064900F0070208682B
:100F90004FF6FF03184040EA0220034A104308605E
:100FA000704700000CED00E00000FA05BFF34F8F22
:100FB00005480168054A01F4E06111430160BFF38F
:100FC0004F8F00BFFDE700000CED00E00400FA05C4
:100FD0002DE9F843054600684FF00109C1074FF0BD
:100FE000000601D1400727D5DFF80C81C8F86860FA
:100FF000FFF720FF0746414C05E000BFFFF71AFF4F
:10100000C01B022857D820680001F7D46868810106
:10101000287A41EA0070394984310860C8F868903C
:10102000FFF708FF074604E0FFF704FFC01B022894
:1010300041D820680001F7D52878800752D52F487D
:101040004030016841F08051016000682C4C00F094
:1010500080500090206840F480702060FFF7EAFE26
:10106000074604E0FFF7E6FEC01B022823D82068ED
:10107000C005F7D5214C7034206810F4407020D0A2
:10108000A98901F4407181421BD020681D4920F4D8
:101090004070C1F800900E6020602068C00710D03A
:1010A000FFF7C8FE064641F2883707E0FFF7C2FEA9
:1010B000801BB84202D90320BDE8F883206880076E
:1010C000F4D5E9680D48C1F301220830032A0BD09A
:1010D000016821F4F81101602068A989C1F30B01AE
:1010E000084320600020E7E70268074B22F4F8126B
:1010F00019400A430260EFE700004742003802400F
:1011000000700040400E4742FFFCFF0F2DE9F04702
:101110000E46050065D0DFF81481D8F80000F7B25C
:1011200000F00F00B04207D288F80070D8F8000035
:1011300000F00F00B04254D128683D4C810712D511
:10114000400703D5206840F4E0502060287800076D
:1011500003D5206840F4604020602068A96820F032
:10116000F000084320602878C0072DD03049686817
:101170000839012812D0022813D0032811D0096899
:10118000890700292DDA216821F00301014321603C
:10119000FFF750FE814641F2883A0EE00968890364
:1011A000EFE709688901ECE7FFF744FEA0EB0901CE
:1011B000514502D90320BDE8F0872068696800F036
:1011C0000C00B0EB810FEFD1D8F80010404601F0D1
:1011D0000F01B14207D90770006800F00F00B0425C
:1011E00001D00120E7E72878400705D52068E968A5
:1011F00020F4E050084320602878000706D52068D6
:10120000296920F4604040EAC100206000F056F8EF
:101210002168084AC1F30311515CC84006490860BF
:101220000020FFF72FFE0020C5E70000003C024031
:1012300008380240D44D00086C0000200F220260E4
:101240000C4A136803F003034360136803F0F003D0
:101250008360136803F4E053C36012684FF4E053F3
:1012600003EAD20202610448006800F00F0008603F
:101270007047000008380240003C0240044805491D
:1012800000680968044AC1F38221515CC840704774
:101290006C00002008380240E44D0008044805496D
:1012A00000680968044AC1F34231515CC840704784
:1012B0006C00002008380240E44D0008154810B5C5
:1012C000006810F00C02144813D04110042A0FD00B
:1012D000082A0ED10F4C241F2268236802F03F0217
:1012E0005B0207D52068C0F38810A0FB010106E06F
:1012F000084610BD2168C1F38811A1FB000100233D
:10130000FEF7BCFF2168C1F30141491C4900B0FB55
:10131000F1F010BD083802400024F4002DE9F84F28
:10132000050076D02878DFF8F8B2BE4CC00749D067
:10133000DBF800105846C1F38101012908D000688C
:10134000C0F3810002280AD1201D0068400206D5A2
:101350002068800336D568680028E2D032E06868EB
:10136000B0F5803F10D0B0F5A02F206810D020F449
:1013700080302060206820F4802020606868A0B160
:10138000FFF758FD06460CE0206840F48030F4E793
:1013900040F480202060F7E7FFF74CFD801B6428B5
:1013A00073D820688003F7D50CE0FFF743FD0646AD
:1013B00005E000BFFFF73EFD801B6428F0D82068E1
:1013C0008003F7D42878DFF8608280074FF00009A7
:1013D0003ED5DBF80010584611F00C0F09D000681C
:1013E000C0F3810002280BD18D48001F0068400225
:1013F00006D42068800715D5E868012809D111E0D6
:10140000E868B8B10120C8F80000FFF713FD0646F0
:1014100005E002E1FFF70EFD801B0228C0D820681E
:101420008007F7D52068296920F0F80040EAC1005C
:1014300020600DE0C8F80090FFF7FCFC064604E0D1
:10144000FFF7F8FC801B02281FD820688007F7D41C
:101450002878000722D5724E744869696C3671B1DC
:1014600001210160FFF7E6FC074604E0FFF7E2FC1C
:10147000C01B022809D830688007F7D50EE0C0F8F5
:101480000090FFF7D7FC074605E083E0FFF7D2FCAA
:10149000C01B02287ED830688007F7D42878400720
:1014A00068D5DFF87CA100270AF1380ADAF80000D5
:1014B000C0000BD4DAF8001041F08051CAF80010D7
:1014C000DAF80000012700F080500090584E306894
:1014D000C00510D4306840F480703060FFF7AAFC7B
:1014E000009005E0FFF7A6FC0099401A022851D8A9
:1014F0003068C005F6D54A4EA868683601280FD076
:101500000528306810D020F001003060306820F0ED
:1015100004003060A868B8B1FFF78CFC00900FE0C1
:10152000306840F00100F4E740F004003060F7E775
:10153000FFF780FC0099411A41F28830814264D85B
:1015400030688007F4D50EE0FFF774FC009007E0E8
:10155000FFF770FC0099411A41F28830814254D85B
:1015600030688007F4D42FB1DAF8001021F08051F0
:10157000CAF80010A869C0B3DBF80010C1F38101FC
:1015800002294AD00228484607D0C8F86000FFF771
:1015900051FC00E039E005463AE04746C8F86000F3
:1015A000FFF748FC064604E0FFF744FC801B0228D6
:1015B0002BD820688001F7D4D5E907010843A96A30
:1015C0001C4A490802EB01416A6A41EA8211084358
:1015D00095F82C1040EA01611148001F01600120BC
:1015E0003866FFF727FC054605E014E0FFF722FC0C
:1015F000401B022809D820688001F7D50BE000BF06
:10160000FFF718FC401B022802D90320BDE8F88F21
:1016100020688001F4D40020F8E70120F6E70000FC
:10162000083802400038024000004742800E47421E
:10163000007000400000FFFF70B5040002D0607F22
:1016400010B106E0012070BD00202077204600F098
:1016500049F8022060772168CA2048622168532037
:101660004862204600F0DEFCFF25042618BB2068F7
:1016700081681B4A11408160216888686268104354
:10168000D4E904231A43104388602168E0680861A4
:1016900020680169228941EA024101612068C1682C
:1016A00021F08001C16020688068800607D4204650
:1016B00000F000F918B1206845626677C2E720683B
:1016C000016C21F4802101642068016CA26911433E
:1016D00001642068456201206077002070BD000031
:1016E000BFFF8FFF00680349884202D102490120F1
:1016F00008607047002800403C0E47422DE9F04743
:101700000446007F0B4601281FD04FF0010984F8E2
:101710001C9002206077DAB19878D97840EA0145C8
:1017200058781978000240EA413005432168CA2000
:101730004862216853204862204600F073FC00266E
:10174000FF274FF0040860BB1AE00220BDE8F087D5
:101750005878C10603D500F0EF000A305870D878E9
:1017600000F055FC0204587800F051FC42EA0022D7
:10177000987800F04CFC0243187842EA4035D5E7EF
:101780000F480540206845602068C16821F080014D
:10179000C1602068806880060AD4204600F08AF87C
:1017A00030B12068476284F81D8026770120CDE79C
:1017B0002068476284F81D9026770020C6E7000065
:1017C0003FFFFF002DE9F0470446007F0D4601284A
:1017D00011D04FF0010A84F81CA002206077206825
:1017E000002680684FEA406042B100281ADA287863
:1017F00000F004FC17E00220BDE8F087002800DBC1
:10180000EE70287800F003FC0204687800F0FFFB1B
:1018100042EA0022A87800F0FAFB0243E87842EAA4
:1018200000470AE0EE70A878297840EA0147687816
:10183000E978000240EA014007432168CA20486273
:10184000216853204862204600F0ECFB4FF0FF086F
:101850004FF00409E0B91648074020680760206887
:10186000816821F480218160D5E903010843216862
:101870008A68104388602068C16821F08001C160D7
:101880002068806880060BD4204600F013F838B139
:101890002168C1F8248084F81D9026770120ABE7E9
:1018A0002168C1F8248084F81DA026770020A3E7D2
:1018B0007F7F7F0070B504460068C16821F0A001F9
:1018C000C160FFF7B7FA05464FF47A7607E000BF2C
:1018D000FFF7B0FA401BB04201D9032070BD206869
:1018E000C0688006F4D5002070BD7047704710B501
:1018F000040003D094F8390010B107E0012010BDB6
:10190000002084F83800204600F00CF8022084F80B
:101910003900211D206800F03BFC012084F83900CB
:10192000002010BD70470168CA6842F00102CA6019
:101930000068016841F001010160002070477047B4
:1019400070B50446006801694FF00005C943890776
:1019500015D4C168C943890711D4E91E016101206A
:101960002076206880698007204602D0FFF7E7FFD5
:1019700004E000F098F8204600F096F825762068FC
:101980000169C943490717D4C168C943490713D43A
:101990006FF004010161022020762068806910F454
:1019A000407F204602D0FFF7CAFF04E000F07BF83A
:1019B000204600F079F8257620680169C9430907B7
:1019C00016D4C168C943090712D46FF00801016138
:1019D000042020762068C0698007204602D0FFF7E7
:1019E000AEFF04E000F05FF8204600F05DF82576D9
:1019F00020680169C943C90617D4C168C943C9062B
:101A000013D46FF010010161082020762068C069AE
:101A100010F4407F204602D0FFF791FF04E000F071
:101A200042F8204600F040F8257620680169C94355
:101A3000C90708D1C168C943C90704D1891E01611A
:101A4000204600F033F820680169C943090609D42B
:101A5000C168C943090605D46FF0800101612046C1
:101A6000FFF743FF20680169C943490609D4C168EB
:101A7000C943490605D46FF040010161204600F0DA
:101A80001FF820680169C94389060BD4C168C9439E
:101A9000890607D46FF0200101612046BDE870403F
:101AA000FFF724BF70BD704770470000006803490E
:101AB000884201D1FFF7C4B9704700000010004010
:101AC0007047704770B5026804461068D168536962
:101AD00010F00F0F50D003F0010501F4907635435C
:101AE0005DD0C20705D0CA0503D5E26B42F0010202
:101AF000E263420705D5DA0703D0E26B42F0020247
:101B0000E263820705D5DA0703D0E26B42F00402F4
:101B1000E263020705D5DA0703D0E26B42F0080260
:101B2000E263E26B002A33D0800604D5880602D532
:101B3000204600F0A3FB20684069E16BC0F38010F1
:101B4000090700D428B3204600F08AFB20684169C9
:101B500049061AD5416921F040014161606BA0B18D
:101B60001B490165606BFEF7A3FF002810D0606B76
:101B7000016DBDE870400847830610D58B060ED571
:101B80002046BDE8704000F079BB2046FFF799FF82
:101B900070BD2046FFF795FF0020E06370BD03068F
:101BA00006D50B0604D52046BDE8704000F002BD06
:101BB0004006F3D54806F1D5D168204621F0400112
:101BC000D160202184F8391000F0F4F870BD0000D5
:101BD0005122000870B5040004D094F839000025A3
:101BE00010B106E0012070BD84F83850204600F0A6
:101BF00023F8242084F839002068C16821F40051BA
:101C0000C160204600F080FB2068016921F490410A
:101C100001612068416921F02A0141612068C168A1
:101C200041F40051C160E563202084F8390084F854
:101C30003A00002070BD0000F0B587B004461421C2
:101C40006846FEF765FB2848264F26682649103867
:101C50000222012303240725BE421DD10E6846F44B
:101C600000360E60096801F400310591016841F009
:101C7000010101600068694600F0010005900C2038
:101C80008DE83D001948FEF7EFFF002205212620D0
:101C9000FFF75AF9262020E0154FBE421FD10E68EB
:101CA00046F480260E60096801F4802105910168E0
:101CB00041F0020101600068694600F002000590F1
:101CC0004FF440608DE83D000A48FEF7CDFF00224A
:101CD00005212720FFF738F92720FFF729F907B05A
:101CE000F0BD0000004400404038024000000240C7
:101CF000004800400004024070472DE9F8430446C4
:101D000090F839001F4616460D46202850D1A5B13F
:101D10009EB194F8380001284AD0012084F8380098
:101D20004FF00008C4F83C80212084F83900FFF708
:101D300081F8A6848146E68426E00120BDE8F88388
:101D4000E08C401EE084A0684B46B0F5805F4FF009
:101D500000024FF080012046009703D000F05BFCAA
:101D6000E8B90DE000F057FCC8B928882168C0F335
:101D700008004860206908B16D1C05E0AD1C03E057
:101D8000216815F8010B4860E08C0028D8D14B463B
:101D9000002240212046009700F03DFC08B10320BE
:101DA000CCE7202084F8390084F838800020C5E78B
:101DB0000220C3E77047FEE702F052F8FEE700009A
:101DC000F0B589B00C460F49DDE9106591F800E0E7
:101DD0000021DDE90EC705910691CDE9003C079190
:101DE00008911346BEF1000F02972246014601D02A
:101DF000012000E00020CDE9036500F0FFFF09B0FD
:101E0000F0BD0000000000202DE9F04387B0142150
:101E10006846FEF77DFA35480024016841F001016B
:101E20000160016801F001010591016841F00201C2
:101E30000160016801F002010591016841F00801AB
:101E400001600068DFF8A89000F00800059000220B
:101E50004FF20F014846FEF7E8FF0126254F022505
:101E60000096DFF89480CDE9017569464046FEF79B
:101E7000FBFE4FF47070CDE90007694602954846B5
:101E8000FEF7F2FE4FF470400090CDE90164694620
:101E900048460394FEF7E8FE4FF4E050CDE9000514
:101EA0000320CDE902400A20049069464046FEF72F
:101EB000DBFE0F20CDE90006CDE902546946484615
:101EC000FEF7D2FE002205210620FFF73DF806208E
:101ED000FFF72EF8002205211720FFF735F817200D
:101EE000FFF726F807B0BDE8F08300003038024065
:101EF000000C0240000011100000024010B586B036
:101F000014216846FEF704FA174800241549059481
:101F1000C0E900141F21816040F2E731C0E90314D9
:101F200044618461FFF788FB8DF800408DF8014023
:101F30008DF802400394012269460B480494FFF790
:101F400041FC01208DF814008DF815008DF8160065
:101F500002468DF8174005A90348FFF7CFFB06B0EE
:101F600010BD00000028004098010020FEE77047E7
:101F70000907090E002806DA00F00F0000F1E02042
:101F800080F8141D704700F1E02080F800147047BD
:101F9000064C074E002520780028FCD0257001F063
:101FA000EDFE6421306B01F017FAF4E75B000020CE
:101FB000180000200F4810B5112101702521417033
:101FC000052181700C481321C17007214170162131
:101FD0008170012101700A46064901F17800FFF77E
:101FE000F1FB04480122BDE8104003497830FFF7B7
:101FF00085BB00002001002028000020010901EB22
:10200000810100F00F0000EB4100C0B270470021D9
:1020100002E00A38C0B2491C0A28FAD2090740EA8D
:102020001160704770B504460068C168490614D451
:102030004FF0FF31C160FEF7FDFE05464FF47A76A2
:1020400007E000BFFEF7F6FE401BB04201D90320B7
:1020500070BD2068C0684006F4D5002070BD012026
:1020600001F072F9FBE7000010B5502080F31188F1
:10207000BFF34F8FBFF36F8F02F09CFC18B1044980
:102080004FF080500860002080F3118810BD0000E0
:1020900004ED00E030B597B030216846FEF738F91E
:1020A00014210CA8FEF734F900251F48119512954C
:1020B00013951495016841F080510160006800F0AB
:1020C000805015901948016841F480410160006812
:1020D000102100F4804015900A2000900120CDE9E5
:1020E000030105A9022481E8310008200890A820F6
:1020F000CDE9090407200B906846FFF70FF90CA9FA
:102100000F2081E831004FF4A0500F90E0021090B2
:1021100005210CA8FEF7FAFF20021490119411A8D3
:10212000FEF756FF17B030BD403802400070004047
:102130001048016841F4700101600F48016841F0E6
:10214000010101600C4A00210832116002680B4B4A
:102150001A400260031D0A4A1A60026822F48022B3
:10216000026005480C300160024958068039086059
:102170007047000088ED00E000380240FFFFF6FEE7
:10218000103000240148FFF7DBBB000038020020BC
:10219000F0B50268234B244D244E254F254C4FF0BB
:1021A000804C984209D0604507D0A84205D0B04283
:1021B00003D0B84201D0A04204D122F0700E4A6888
:1021C00042EA0E0298421BD0604519D0A84217D0AF
:1021D000B04215D0B84213D0A04211D0164DA8423B
:1021E0000ED0164DA8420BD0154DA84208D0154D63
:1021F000A84205D0144DA84202D0144DA84203D1E4
:1022000022F44075CA682A4302608A68C2620A687A
:102210008262984201D0A04201D109690163012183
:102220004161F0BD00000140000400400008004092
:10223000000C004000040140004001400044014007
:102240000048014000180040001C004000200040F1
:1022500010B5806B0021C185C184FFF732FC10BD31
:102260000168CA6822F49072CA6001684A6922F063
:1022700001024A61202180F83A10704710B590F8A9
:102280003A10222901D0022010BD8168B1F5805F8B
:1022900011D00169002901681FD0496801F07F034E
:1022A000816A4A1C82620B70C18D491E0904090CA7
:1022B000C18518D026E00269816A002A0268526846
:1022C00005D0D2B20A80816A491C8162ECE7C2F370
:1022D00008020A80816A891CF7E74A68816A4B1CF8
:1022E00083620A70E0E70168CA6822F49072CA60EB
:1022F00001684A6922F001024A61202180F83A10FF
:10230000FFF7FAFC002010BD2DE9F04104460068FB
:10231000016921F44052E168114301612168C868F4
:1023200049F20C6290432369A268E5691A43636924
:102330002B431A430243CA602168486920F4407263
:10234000A06910434861E1696425B1F5004F9748E1
:10235000974A21684FF032083FD0914201D0814224
:102360007CD1FEF79BFF00EBC00101EB0010616820
:102370008900B0FBF1F6FEF791FF00EBC00101EB25
:10238000001061688900B0FBF1F0B0FBF5F06FF070
:102390001801484306EB800108EB0110B0FBF5F093
:1023A00000F0F006FEF77AFF00EBC00101EB001031
:1023B00061688900B0FBF1F0B0FBF5F006EB0016A8
:1023C000FEF76CFF00EBC00101EB001061688900B3
:1023D000B0FBF1F7FEF762FFD2E0914201D08142FB
:1023E0003DD1FEF75BFF00EBC00101EB001061681F
:1023F0004900B0FBF1F0B0FBF5F00601FEF74EFF2F
:1024000000EBC00101EB001061684900B0FBF1F77F
:10241000FEF744FF00EBC00101EB001061684900CA
:10242000B0FBF1F0B0FBF5F06FF01801484307EB9B
:10243000800108EBC100B0FBF5F000F0F80006EBFE
:102440004006FEF72BFF00EBC00101EB00106168B6
:102450004900B0FBF1F7FEF721FF3CE055E0FEF745
:102460000DFF00EBC00101EB001061684900B0FBFB
:10247000F1F0B0FBF5F00601FEF700FF00EBC00144
:1024800001EB001061684900B0FBF1F7FEF7F6FEC2
:1024900000EBC00101EB001061684900B0FBF1F0F6
:1024A000B0FBF5F06FF01801484307EB800108EB33
:1024B000C100B0FBF5F000F0F80006EB4006FEF7B7
:1024C000DDFE00EBC00101EB001061684900B0FBCC
:1024D000F1F7FEF7D3FE00EBC00101EB00106168DD
:1024E0004900B0FBF1F0B0FBF5F06FF01801484384
:1024F00007EB800108EBC100B0FBF5F000F007002E
:10250000216830448860BDE8F081FEF7B7FE00EB3B
:10251000C00101EB001061688900B0FBF1F6FEF725
:10252000ADFE00EBC00101EB001061688900B0FB5B
:10253000F1F0B0FBF5F06FF01801484306EB8001B5
:1025400008EB0110B0FBF5F000F0F006FEF796FE88
:1025500000EBC00101EB001061688900B0FBF1F0F5
:10256000B0FBF5F006EB0016FEF788FE00EBC001AD
:1025700001EB001061688900B0FBF1F7FEF77EFE09
:1025800000EBC00101EB001061688900B0FBF1F0C5
:10259000B0FBF5F06FF01801484307EB800108EB42
:1025A0000110B0FBF5F000F00F00A9E700140140A6
:1025B0000010014090F83910212901D00220704705
:1025C0008168B1F5805F016A0BD04A1C0262026823
:1025D00009785160C18C491E0904090CC1840ED0D0
:1025E00017E009880268C1F30801516001690029F8
:1025F000016A02D0491C0162ECE7891CFBE7016813
:10260000CA6822F08002CA600068C16841F04001D7
:10261000C160002070472DE9F041984617460E46EC
:102620000446069D1DE0681C1BD02DB1FEF702FC80
:10263000A0EB0800A84214D92068C16821F4D07129
:10264000C1602068416921F001014161202084F8C6
:10265000390084F83A00002084F838000320BDE8EF
:10266000F0812068006836EA000004D00020B842FB
:10267000D9D00020F3E70120F9E700000148FFF777
:1026800021BA0000B80100200148FFF71BBA000082
:10269000F8010020FEE70000054CA07818B100F01A
:1026A000E3F90020A070012000F04EFEFBE70000DF
:1026B000180000200FB4054B10B503A9044A029876
:1026C00000F02CF810BC5DF814FB0000D92D0008B8
:1026D000E40000200FB4084B10B504A902AA039827
:1026E00000F01CF8044602A9002000F0B8F92046CA
:1026F00010BC5DF814FB00005F2A000802E008C867
:10270000121F08C1002AFAD170477047002001E06B
:1027100001C1121F002AFBD1704700002DE9FF4FB5
:102720008BB088460546002606E025280BD0DDE95B
:102730000D1290476D1C761C28780028F5D10FB03B
:102740003046BDE8F08F0024A146A2460122AE49E2
:1027500000E0044315F8013F203B02FA03F0084271
:10276000F7D128782A2810D06FF02F022878A0F10E
:102770003001092915D809EB890102EB410144F028
:10278000020400EB01096D1CF0E758F8041B5FEA36
:10279000010903D544F40054C9F1000944F00204CE
:1027A0006D1C28782E2817D115F8010F44F0040469
:1027B0002A280ED06FF02F022878A0F130010929C5
:1027C0000AD80AEB8A0102EB410100EB010A6D1CF9
:1027D000F2E758F804AB6D1C28786C280FD006DCA3
:1027E0004C2817D068280DD06A2814D104E074282A
:1027F00010D07A280FD10DE044F400140AE044F41C
:10280000801401E044F440146978814202D104F557
:1028100080146D1C6D1C2878692865D006DC0028A2
:102820008DD0632827D0642806D15DE06E2808D0BB
:1028300073282AD0752877D0DDE90D129047761CD1
:10284000E0E0C4F30250022809D003280DD0D8F8E4
:10285000001004280DD00E6008F10408D2E0D8F86A
:102860000010F217C1E90062F6E7D8F800100E80F8
:10287000F2E70E70F0E718F8041B8DF80010002046
:102880008DF80100EB46012003E058F804BB4FF03F
:10289000FF3061074FF0000701D40AE07F1C574565
:1028A0000DDA8742FADB1BF807100029F6D106E0A3
:1028B0007F1C8742FCDB1BF807100029F8D1DDE9FB
:1028C0000D23A9EB07008146214600F0B1F8304402
:1028D000C61904E0DDE90D121BF8010B90477F1EBD
:1028E000F8D22146484688E058F8040BC4F3025158
:1028F0004FF00A0B032900D100B2042900D140B2E5
:10290000002802DA40422D2102E0210505D52B21C5
:102910008DF82410012104E006E0E10710D0202109
:10292000F6E708AF089113E058F8040BC4F302511E
:102930004FF00A0B032900D180B2042900D1C0B2A4
:102940000021EEE75946FDF7F5FC303107F8011D8F
:102950000028F7D1ADEB070000F1200B600702D58E
:1029600024F4803401E04FF0010ADA4502DDAAEBDD
:102970000B0000E00020824600EB0B0108980144A8
:10298000A9EB01000A90E00306D4DDE90D232146FE
:102990000A9800F04DF806444FF0000908E009A934
:1029A00011F80900DDE90D12904709F10109761CC3
:1029B00008998945F3DBE0030CD5DDE90D232146B9
:1029C0000A9800F035F8064404E0DDE90D123020E5
:1029D0009047761CBAF10001AAF1010AF5DC05E086
:1029E000DDE90D1217F8010B9047761CBBF10001D1
:1029F000ABF1010BF4DC0A982146DDE90D2300F070
:102A000005F806446D1C97E6092801002DE9F04100
:102A1000044600251E461746880404D405E03946BE
:102A20002020B0476D1C641EF9D52846BDE8F08112
:102A30002DE9F041044600251E469046C80301D505
:102A4000302700E02027880404D505E041463846B9
:102A5000B0476D1C641EF9D52846BDE8F0810A68B0
:102A6000531C0B601070704710B517A0FFF722FEC3
:102A70004FF42F7000F068FC15A0FFF71BFE40F626
:102A80008C24204600F060FC15A0FFF713FE2046C2
:102A900000F05AFC16A0FFF70DFE204600F054FC93
:102AA0001BA0FFF707FE204600F04EFC1CA0FFF71E
:102AB00001FE204600F048FC1DA0FFF7FBFD20466C
:102AC000BDE8104000F040BC41540D0A0000000079
:102AD00041542B43574D4F44453D310D0A000000F2
:102AE00041542B41542B43494653520D0A000000D8
:102AF00041542B43574A41503D22686F64686F64CC
:102B0000222C223132333435363738220D0A000078
:102B100041542B43574A41503D3F0D0A00000000ED
:102B200041542B4349504D55583D310D0A0000008A
:102B300041542B4349505345525645523D312C3850
:102B4000300D0A0030B54B4C85B00D46012903D934
:102B5000A17841F00801A17000F1400302466571BF
:102B60004021002001F072F9607828B1012D03D1D5
:102B7000A07840F00400A07000F0D6F801200225F3
:102B80000190039521783C480029E28801886389F7
:102B900041EA0201228942EA030241EA0201428833
:102BA00041EA0201828841EA020101D0C08808E0BE
:102BB000C288114302891143428911438289C08925
:102BC0001143014300916946E068FEF74DF8322059
:102BD000FDF780FF0022E188E068FEF726F9002279
:102BE0006189E068FEF721F92189FF2903D00022DD
:102BF000E068FEF71AF9A078C10615D4032001F0A9
:102C000093FB0520FDF766FF032001F08DFB0520F7
:102C1000FDF760FF032001F087FB0120FDF75AFF5D
:102C2000022001F081FB13E040F0200000F02FF8BB
:102C30000520FDF74FFFA07840F0200000F027F8B6
:102C40000120FDF747FFA07840F0200000F01FF8BA
:102C5000A07840F0200000F01AF80420E07000F0A6
:102C600019F800F00BF82571062000F010F805B0F7
:102C700030BD000000000020E800002010B5012059
:102C800000F005F8BDE810400220FDF723BF002149
:102C900001F03EB80449C87840F00400C87040F024
:102CA0000800FFF7F4BF0000000000202DE9F0410C
:102CB000FDF7B6FFFDF718FC194DA5F1380168883E
:102CC000FDF734FDA5F13C04A088A0F57F41FF3954
:102CD00003D1A1806888FDF78BFDFDF759FF60786F
:102CE00000281BD0FDF79CFF0E4F00262888A188E6
:102CF0000844491CA18080B2B95DFDF779FD688860
:102D0000A188FDF775FD761C0A2EEFDB6888A18887
:102D1000FDF76EFDBDE8F041FDF73ABFBDE8F0817B
:102D20005400002034010020234808B5234AC1681C
:102D30002348914207D1016841F001010160006818
:102D400000F0010009E01F4A914208D1016841F0FA
:102D500002010160006800F00200009008BD1A4AFC
:102D6000914207D1016841F004010160006800F060
:102D70000400F2E7154A914207D1016841F00801C9
:102D80000160006800F00800E7E7114A914207D1AE
:102D9000016841F010010160006800F01000DCE7FC
:102DA0000C4A9142DAD1016841F0200101600068CB
:102DB00000F02000D1E700000000002000000240E9
:102DC000303802400004024000080240000C02407B
:102DD000001002400014024013B54FF47A73012230
:102DE00069460248FEF789FF00981CBDF8010020E3
:102DF000EFF30580002800D0012070472DE9F05F37
:102E00000AAC94E8E05F0F4CE28023816581E160C9
:102E10000D490E804F80A1F80480A1F80690A1F81A
:102E200008A0A1F80AB0A1F80CC0A1F80EE008B102
:102E3000002000E01020A070BDE8F05F022110200B
:102E4000FFF780BE00000020E800002000F0A6F898
:102E5000012000F079FAF9E7A6B0FDF7F9FF4FF489
:102E600080435A10511048108DE80F004310821013
:102E7000C1104148FEF7A4FFFFF70CF9FEF7C4FFAD
:102E8000FFF73CF83E483D494FF4E135002401602E
:102E9000C0E901540C26C460C0E904468461C461E1
:102EA000FEF798FE3648374940380160C0E90154C2
:102EB000C460C0E904468461C461FEF78BFE012151
:102EC00022A8229400F04CFA2F4C304D0022A0632F
:102ED00028682390012123A800F06CFA2063686819
:102EE00024900022012124A800F064FA60631422D7
:102EF00005F1180104A8FDF7F2F9002104A800F07B
:102F000042FAA061142205F12C0109A8FDF7E7F9A6
:102F1000002109A800F037FAE061142205F1400110
:102F20000EA8FDF7DCF900210EA800F02CFA2062B3
:102F3000142205F1540113A8FDF7D1F9002113A8BB
:102F400000F021FA6062142205F1680118A8FDF76B
:102F5000C6F9002118A800F016FAA062142205F1A3
:102F60007C011DA8FDF7BBF900211DA800F00BFA9C
:102F7000E06200F0F0F9FEE7001002400048004077
:102F8000F80100200044004018000020444D0008D3
:102F900001460020842900D0C81C70472DE9F05F4D
:102FA0000026BD4DBD4C4FF4807A4FF4007B4FF0AE
:102FB000010937464FF0FF30606136B1012E0BD06A
:102FC000022E7DD0032E1BD1A1E0012211462846FE
:102FD000FDF72BFF002205E0002201212846FDF726
:102FE00024FF012202212846FDF71FFF00220421B1
:102FF0002846FDF71AFF002208212846FDF715FF95
:1030000040212846FDF708FF30B16761402128467E
:10301000FDF702FF0028F9D180212846FDF7FCFECC
:1030200038B1C4F8149080212846FDF7F5FE002839
:10303000F9D1D04651462846FDF7EEFE38B10220C0
:10304000606141462846FDF7E7FE0028F9D1D846E1
:1030500059462846FDF7E0FE38B10320606141463D
:103060002846FDF7D9FE0028F9D18D4800780028C0
:1030700040D06069401CFBD0207870B10021084628
:1030800000F068FE87A000F001FA0121002000F0A6
:1030900061FE84A000F0FAF92770207A002100F088
:1030A00059FE8548E760616900EB860818F8010061
:1030B00031283DD032283BD0332839D0342800E0A5
:1030C00019E035D0352833D0362831D037282FD0E5
:1030D00038282DD039282BD0302829D02A2842D082
:1030E00023284FD041287DD042287BD0432879D057
:1030F00044287ED0C9E0002201212846FDF795FE34
:10310000002202212846FDF790FE01226FE70022EF
:1031100001212846FDF789FE002202212846FDF7FD
:1031200084FE002204212846FDF77FFE012263E78A
:103130000021084600F00EFE60A000F0A7F9A0688C
:103140000121C2B2401CA060104600F003FE61697C
:103150005D4AE06818F801101154401CE060084610
:1031600001F0DCF891E059A0FFF7A4FA84F8009090
:103170004D46A760FFF782FD57480570BDE8F05F38
:1031800000F06EBE55A0FFF795FA84F80090A76096
:10319000FFF774FD0021084600F0DCFD52A000F0AE
:1031A00075F96420FDF796FCFFF768FD00210846DD
:1031B00000F0D0FD50A000F069F94FF4805128468E
:1031C000FDF72FFE4FF400512846FDF72AFE4FF47D
:1031D00080412846FDF725FE4FF400412846FDF7C3
:1031E00020FE00E005E0606BBDE8F05F0A2100F022
:1031F000F3B8FFF743FD0021084600F0ABFD42A005
:1032000000F044F96420FDF765FC616918F80100DD
:10321000412806D042280FD043281CD0442825D06E
:1032200033E0A760FFF72AFD0021084600F092FD79
:1032300084F8029039A016E0A760FFF71FFD002177
:10324000084600F087FD3AA000F020F984F80190CC
:10325000FFF72CFD19E0A760FFF710FD00210846DD
:1032600000F078FD15A000F011F90EE0A760FFF75F
:1032700005FD0021084600F06DFD30A000F006F9C4
:103280003220FDF727FCFDF791FE761C042EFFF699
:1032900091AEBDE8F09F0000000C02401800002035
:1032A0005A00002020202020202020202020202024
:1032B00020202020000000004C4D0008456E746561
:1032C0007220554944203A003401002066696E6935
:1032D00073686564210D0A005B0000206368656304
:1032E0006B554944210D0A004368656B696E672080
:1032F0005549442100000000756E617574686F7255
:10330000697A656400000000456E74657220506142
:103310007373776F7264203A00000000436865633E
:103320006B696E6720535349442E2E2E0000000017
:10333000736176696E672E2E00000000526573740B
:10334000617274202E2E2E0010B500B9012000F0FD
:10335000C3FE002010BD10B500F072FF002010BDAC
:1033600010B5012901D0002010BD03220021012049
:1033700001F07EF8040004D000231A46194601F03B
:1033800095F9204610BD3EB504460D46B0F908003B
:10339000FFF7FEFD02A9CDE90001208A2B4682B28B
:1033A000D4E9001001F0C6FA012801D000203EBD8A
:1033B00002983EBD08B500680090012907D00020A2
:1033C00013460246012103A001F040FC08BD012084
:1033D000F6E70000000000002DE9FC41002507464B
:1033E0002E4601950C0000D10124FFF701FD009647
:1033F00090B101AB22460921384601F073FC012847
:1034000012D1019888B10A494FF080500860BFF38B
:103410004F8FBFF36F8F08E0002322460421384608
:1034200001F060FC012800D0FF252846BDE8FC81A2
:1034300004ED00E07CB5002506462C460195FFF71B
:10344000D7FC0094A0B101AB00220821304601F066
:1034500049FC012801D0FF207CBD019888B10A49B0
:103460004FF080500860BFF34F8FBFF36F8F08E0BD
:1034700000231A460321304601F034FC012800D015
:10348000FF2528467CBD000004ED00E070B5002853
:103490000FD00446FCF747FF0546002606E000BFB4
:1034A00014F8010B012100F033FC761C6D1EF7D2DD
:1034B000304670BD2DE9F041184C0F460546E668D0
:1034C0002068001D00F0F2FC38B9206890F82C103C
:1034D00001208840216981432161681C07D137B1EF
:1034E0002168BDE8F0410E48091D00F017BD2068B5
:1034F0003544B5424560216805D2A06BBDE8F04176
:10350000091D00F0F3BC606B091D00F0EFFCA06A20
:10351000854200D2A562BDE8F08100007000002065
:10352000B00300202DE9F041054600F003FD2E4CCC
:10353000A068401CA06020682C4F10B1606940B3A7
:103540002DE02560A068012829D1002606EB860021
:1035500007EB800000F0BCFC761C072EF6D3234856
:103560008C3000F0B5FC2148A03000F0B1FC1F48C1
:10357000B43000F0ADFC1D48C83000F0A9FC1B4879
:10358000DC3000F0A5FC19488C3060631430A06377
:1035900005E02068E96AC06A884200D82560606A50
:1035A000401C6062E96A0120226988401043206162
:1035B00001EB810007EB8000291D00F0AFFC00F05B
:1035C000D9FC606900280CD02068E96AC06A88428A
:1035D00007D207494FF080500860BFF34F8FBFF309
:1035E0006F8FBDE8F081000070000020D402002041
:1035F00004ED00E010B500F09DFC0E4C2068A0B971
:103600000D4800F065FC0C48143000F061FC0A48DD
:10361000E0601430206100220C210A2000F028FF15
:10362000206010B105A100F021FDBDE8104000F0C0
:10363000A1BC0000AC000020C4030020546D7251F6
:103640000000000070B5114E114C17E000F030FE84
:103650003068B8B101F098FA00F06CFCF068C56809
:10366000281D00F023FCA068401EA0606068401E7A
:10367000606000F07FFC284600F055F86068002884
:10368000E4D170BD01F080FAF8E700009C0300204F
:103690007000002030B4026C0B46002A0BD0C168C9
:1036A0001144C1604468A14201D30168C16030BCCB
:1036B0001846FCF714BE30BC70472DE9F041856B0D
:1036C000174604460026026C82B1C7B1E068FCF7D9
:1036D00006FEE168206C091AE1602268914202D27C
:1036E0006168081AE060022F16D017E02068A8B9B8
:1036F000606801F0C3F90646002060600EE0A06833
:10370000FCF7EDFD216CA0680844A0606168884268
:1037100004D32068A06001E005B16D1E6D1CA56397
:103720003046BDE8F08110B50446006B00F036FC71
:103730002046BDE8104000F031BC000010484FF4B6
:103740007051420706D0C01D0D4920F00700411AF4
:10375000C1F570510B4A00230144C2E90003083946
:10376000103A21F0070111604B600B600B1AC0E9A1
:10377000001393604FF000405360D060704700002A
:10378000EC030020D0000020074C4FF08056074D7E
:10379000FFF758FF20680128FAD92E60BFF34F8F3A
:1037A000BFF36F8FF4E70000D402002004ED00E0C7
:1037B0002DE9F0479A46DDE9098481466FF003035D
:1037C000206B03EB82021044089D20F0070670076F
:1037D00007D0502080F31188BFF34F8FBFF36F8F56
:1037E000FEE723180A5C83F834200A5C12B1401CFF
:1037F0001028F6D3002784F84370072D00D3062540
:10380000E562C4E91157201D00F06DFB04F11800BA
:1038100000F069FB2461C5F107006462A061E76400
:1038200084F8507052464946304600F05BFA2060FA
:10383000B8F1000F01D0C8F80040BDE8F0870000E3
:1038400030B5114900E011460A688242FBD34B684B
:103850005C18844203D140681844486008464368B5
:103860001C18944209D1084C103C2468A24209D08B
:1038700052681A4442600A6812680260814200D0AD
:10388000086030BD0460F9E7D000002070B5002466
:1038900041600B4D0061914206D8D11A8269914274
:1038A00006D2011D286907E09A4203D2994201D34A
:1038B000012403E0011DE86800F018FB204670BDFC
:1038C000AC00002010B5044600F034FBA06B28B11A
:1038D0005FF0000400F04EFB204610BD0124F9E724
:1038E00030B587B02B4D4BE00498002848DB069C90
:1038F000606910B1201D00F0D9FA02A800F0B6F8F6
:10390000024604980A283BD2DFE800F00505053A94
:10391000263705053A260598A16903460144204645
:10392000FFF7B4FF00B3616A20468847E0690128C9
:1039300026D1002000900598A1690023421819465D
:10394000204601F0CFF978B9502080F31188BFF3F9
:103950004F8FBFF36F8FFEE70598A06128B18118E4
:1039600013462046FFF792FF0AE0502080F31188AB
:10397000BFF34F8FBFF36F8FFEE7204600F00EFBC3
:1039800000231A4604A9286800F096FD0028ABD150
:1039900007B030BDAC0000202DE9FC410F460546C4
:1039A00000F086FC01A800F061F80446019818B107
:1039B00001F0EAF8BDE8FC81224EAFB13069006841
:1039C000A8B30027291B3A46306800F063FB01F0DA
:1039D000DBF80028EED11C494FF080500860BFF39F
:1039E0004F8FBFF36F8FE5E7A542EBD801F0CCF81E
:1039F000F0682746C068C468201D00F057FAE069E7
:103A0000012810D1A0692B4641193A462046FFF7FC
:103A10003DFF40B100200346014600902A46204663
:103A200001F060F920B1616A20468847C2E707E0EB
:103A3000502080F31188BFF34F8FBFF36F8FFEE7E5
:103A40000127BFE7AC00002004ED00E00648416B11
:103A5000096829B1416BC968C968496881627047C2
:103A60004FF0FF31FAE700007000002070B5054606
:103A700000F09AFF064E0446B068844203D200F07C
:103A800009F8012000E0002028602046B46070BDE5
:103A9000AC000020F8B5194D1FE0C068C468066886
:103AA000201D00F003FA616A20468847E06901287A
:103AB00013D1A0693044B04206D924616060211D51
:103AC000E86800F013FA08E0002003460146009081
:103AD0003246204601F006F938B1E868016800294D
:103AE000DBD12969C5E90310F8BD502080F31188A6
:103AF000BFF34F8FBFF36F8FFEE70000AC000020D5
:103B000008484068401C4FF0500080F3118804D0F2
:103B1000BFF34F8FBFF36F8FFEE7BFF34F8FBFF33E
:103B20006F8FFEE7D8000020074CE068016841B1C4
:103B3000C0680021D0F80000FFF72EFFFFF7D0FE8D
:103B4000F3E701210020F7E7AC0000202DE9F04168
:103B5000044600F0EFF994F9455004F1240609E019
:103B6000606A48B1304600F0D5FF08B100F0DAFADB
:103B70006D1E6DB2002DF3DC4FF0FF3684F845600A
:103B800000F0F8F900F0D6F994F9445004F1100768
:103B900009E0206948B1384600F0BCFF08B100F0E8
:103BA000C1FA6D1E6DB2002DF3DC84F84460BDE8EF
:103BB000F04100F0DFB9000010B50D4C0022618922
:103BC000E068FDF732F90120FCF784FF01226189EA
:103BD000E068FDF72AF90120FCF77CFF00226189EB
:103BE000E068FDF722F9BDE810400120FCF772BF44
:103BF000000000202DE9F0410546002700F058FBA9
:103C0000314E306808B9FFF799FDF06805424BD195
:103C1000C5B3083568070ED005F00700C0F10800ED
:103C20000544680707D0502080F31188BFF34F8FF9
:103C3000BFF36F8FFEE72DB37068854234D82248FA
:103C4000103001460C6801E020460C466168A9422C
:103C500002D221680029F7D131688C4224D007684C
:103C60002168016060680837411B10290FD960196D
:103C7000420708D0502080F31188BFF34F8FBFF365
:103C80006F8FFEE710E041606560FFF7D9FD616866
:103C90007068401A7060B268904200D2B060F068FC
:103CA00001430020C4E9000100F06EFF780707D04F
:103CB000502080F31188BFF34F8FBFF36F8FFEE763
:103CC0003846BDE8F0810000C000002004490868C3
:103CD00018B10868826C521C826408687047000042
:103CE0007000002010B5031F4FF080741C601B1F74
:103CF00021F001011960191F044B0B6014390A608F
:103D0000091F6FF0020244380A6010BD013B000831
:103D100070B50F4C05460A46E188E068FDF785F866
:103D20002189FF2903D00022E068FDF77EF8A07802
:103D3000C00604D52846BDE8704000F00FBB280936
:103D400000F0F2FA2846BDE8704000F0EDBA00003D
:103D500000000020042900D30321074A5279914230
:103D600001D3521ED1B2044A1032515C0844C0B291
:103D700040F08000FEF78BBF0000002010B5FEF77A
:103D800019F901210020FFF7E5FF214C20780128D7
:103D90000CD002280CD003280CD004280CD0052805
:103DA0000CD006280CD007280CD00EE019A00AE091
:103DB00019A008E019A006E019A004E019A002E08B
:103DC00019A000E019A0FFF761FB01210520FFF712
:103DD000C1FFA378627816A11848FEF77BFC17484C
:103DE000FFF754FB01210B20FFF7B4FF134814A188
:103DF0001430437802782838FEF76CFC0F481438EA
:103E0000FFF744FBBDE810404FF4FA70FFF79CBA8F
:103E1000280000204D6F6E00545545005745440062
:103E200054485500465249005341540053554E00E2
:103E3000253032642F253032640000000C01002050
:103E4000253032643A2530326400000010B5034C4E
:103E500020706170A270E37010BD0000100000209F
:103E600010B500210846FFF775FF09A0FFF70EFB0C
:103E70000C48017800290AD000210170FFF77EFF6D
:103E800009486421006BBDE81040FFF7A5BA10BDDA
:103E900046554D2041636365737320436865636BCA
:103EA000000000005B00002018000020D0E9013273
:103EB00001699A60D0E901235A604A68824201D1BF
:103EC00082684A60002202610868401E08607047EC
:103ED00000F108014FF0FF32C0E90112C160016139
:103EE00000210160704700210161704730B50B6807
:103EF0005A1C02D000F1080202E0026904E02246E6
:103F0000546825689D42FAD953684B6099608A606D
:103F1000516008610168491C016030BD42684A6017
:103F200093688B6093685960916008610168491CCF
:103F300001607047502080F31188BFF34F8FBFF3AB
:103F40006F8F0A494868401C486001280CD1084816
:103F5000006810F0FF0F07D0502080F31188BFF3E6
:103F60004F8FBFF36F8FFEE770470000D80000202F
:103F700004ED00E00849486828B1401E486001D1BE
:103F800080F311887047502080F31188BFF34F8F62
:103F9000BFF36F8FFEE70000D800002070B5002847
:103FA00027D0144DA0F108046168E868014207D1E8
:103FB000502080F31188BFF34F8FBFF36F8FFEE760
:103FC00022683AB1502080F31188BFF34F8FBFF3BE
:103FD0006F8FFEE78143616000F06AF9606869688D
:103FE000084468602046FFF72BFCBDE8704000F0F5
:103FF000CBBD70BDC000002006484FF47A71006848
:10400000B0FBF1F14FF0E020491E41610721016151
:10401000704700006C00002010B5FCF719F9114939
:1040200010280ED300F1E02090F8F0030A789042B7
:1040300007D2502080F31188BFF34F8FBFF36F8FEB
:10404000FEE709480068896800F4E060884207D903
:10405000502080F31188BFF34F8FBFF36F8FFEE7BF
:1040600010BD0000D80000200CED00E010B5084B9A
:10407000002200BF53F832401CB1521C082AF9D369
:1040800010BD43F8321003EBC201486010BD0000C0
:104090009402002070B515460E460446FFF74AFF0D
:1040A00094F944100020491C01D184F8440094F98B
:1040B0004510491C01D184F84500FFF75BFFA06B58
:1040C00028B92A46314604F1240000F049F8204678
:1040D000BDE87040FFF73ABD10B5020014D00F489C
:1040E000006B38B1502080F31188BFF34F8FBFF3BE
:1040F0006F8FFEE700F0DCF800211046FFF7DAF9D9
:1041000000F042FD002807D105494FF080500860BB
:10411000BFF34F8FBFF36F8F10BD00007000002002
:1041200004ED00E001490120C861704770000020E3
:1041300010B50C4650B1094909681831FFF7D6FE91
:104140002046BDE810400121FFF7B4B9502080F3AC
:104150001188BFF34F8FBFF36F8FFEE77000002011
:1041600070B514460D4668B10A4909681831FFF761
:10417000D5FE0CB14FF0FF3521462846BDE8704012
:10418000FFF798B9502080F31188BFF34F8FBFF32A
:104190006F8FFEE77000002070B5040039D01D4D10
:1041A000E06A2968C96A884233D2A069002804DB22
:1041B0002868C06AC0F10700A061E16A164E01EBF1
:1041C0008101606906EB810188421FD1201DFFF744
:1041D0006DFE012150B9E06A00EB800256F8222002
:1041E00022B92A6901FA00F082432A612868C06A6C
:1041F000E0622A6981401143296100EB800006EBEF
:104200008000211DBDE87040FFF788BE2868C06AA5
:10421000E06270BD70000020D402002028B1074980
:104220000A6A0260C96841607047502080F31188B3
:10423000BFF34F8FBFF36F8FFEE7000070000020C9
:104240001CB517480024CDE900402346802215A163
:10425000164800F06FFB012803D100F01FFD012874
:1042600009D0401C1AD1502080F31188BFF34F8F22
:10427000BFF36F8FFEE7502080F31188BFF34F8F9D
:10428000BFF36F8F06484FF0FF312C388162012158
:104290004161C460BDE81C4000F07AB81CBD00005C
:1042A0009C00002049444C4500000000893700086C
:1042B0000248016B491C0163704700007000002038
:1042C0001448016B11B10121C16170470021C16126
:1042D0000169B1FA81F1C1F11F0101EB81020E49BF
:1042E00051F822306BB101EB820101F108034A68F9
:1042F00052684A609A4201D152684A60D1680160AE
:104300007047502080F31188BFF34F8FBFF36F8F3A
:10431000FEE7000070000020D402002010B501214B
:10432000FFF7F6FC012010BD2DE9F041094E0A4FC0
:104330000546002425FA04F000F0010236F81410B6
:10434000F868FCF772FD641C042CF3DBBDE8F04157
:10435000FFF732BCE8000020000000202DE9F0410A
:10436000094E0A4F0546002425FA04F000F0010228
:1043700036F81410F868FCF758FD641C082CF3DBC1
:10438000BDE8F041FFF718BCE80000200000002065
:104390001CB532480168324A914207D1502080F35F
:1043A0001188BFF34F8FBFF36F8FFEE700682C4972
:1043B000491E884207D1502080F31188BFF34F8FE8
:1043C000BFF36F8FFEE7274908780190FF20087040
:1043D00008788DF800009DF800009DF8002000F09E
:1043E000F000904207D0502080F31188BFF34F8F28
:1043F000BFF36F8FFEE79DF800001B4A00F05000EE
:1044000010700720906005E09DF800305B008DF88B
:104410000030401E9DF800301B06F5D4000200F469
:10442000E0609060019808700C482030016841F409
:1044300070010160016841F070410160FFF7DCFD2F
:1044400000205060FBF7CAFE0848016841F0404177
:104450000160FBF7B3FE00201CBD000000ED00E092
:1044600071C20F4100E400E0D800002034EF00E00A
:1044700070B50E46050013D0D6B105FB06F04830E6
:10448000FFF7B8FB040009D004F1480120468EB1C3
:104490000160C0E90F56012100F0C4F8204670BD4C
:1044A000502080F31188BFF34F8FBFF36F8FFEE76B
:1044B0000020E4E70060ECE72DE9FF4F002683B021
:1044C0009B468A46040003D0BAF1000F08D011E0E1
:1044D000502080F31188BFF34F8FBFF36F8FFEE73B
:1044E000206C38B1502080F31188BFF34F8FBFF399
:1044F0006F8FFEE700F04AFADFF824814FF00009E1
:104500004FF0805748B9059838B1502080F3118892
:10451000BFF34F8FBFF36F8FFEE7FFF70BFDA56B68
:1045200045B351462046E668FFF7B4F8BBF1000FEB
:1045300013D0E660606A50B104F1240000F0EAFA9A
:1045400028B1C8F80070BFF34F8FBFF36F8FFFF72C
:1045500011FD012007B0BDE8F08F6D1EA563206836
:1045600010B9FFF7B3FB606020690028EFD004F1B9
:104570001000E3E7059808B11EB106E0FFF7FAFC6A
:1045800027E06846FFF74AFE0126FFF7F3FCFFF736
:104590008FFEFFF7CFFC94F94400401C01D184F852
:1045A000449094F94500401C01D184F84590FFF7F0
:1045B000E1FC05A9684600F087F9002820460AD0EA
:1045C000FFF7C4FA00F0E0FA2046FFF77BF9002875
:1045D000A3D00020BEE7FFF775F9D8B1206830B945
:1045E000FFF7A8FC6068FFF7D7FDFFF7C3FC04F1F5
:1045F00024000599FFF79CFD2046FFF7A7FA00F07D
:10460000C3FA002889D1C8F80070BFF34F8FBFF3F9
:104610006F8F82E72046FFF799FA00F0B5FA7CE742
:1046200004ED00E070B50D46040025D0FFF782FCD4
:10463000D4E90F20216802FB001161600021A16311
:104640002168A1600A46D4E90F01401E00FB012148
:10465000E16021464FF0FF3001F8440F487004F14B
:1046600010008DB1FFF734FC04F12400FFF730FC9B
:10467000FFF780FC012070BD502080F31188BFF34C
:104680004F8FBFF36F8FFEE721690029F0D000F054
:1046900041FA0028ECD004494FF080500860BFF385
:1046A0004F8FBFF36F8FE3E704ED00E02DE9FF4785
:1046B00082B01D468A464FF00008040003D0BAF1CC
:1046C000000F08D011E0502080F31188BFF34F8F06
:1046D000BFF36F8FFEE7206C38B1502080F3118854
:1046E000BFF34F8FBFF36F8FFEE7022D0AD1E06B50
:1046F000012807D0502080F31188BFF34F8FBFF3FC
:104700006F8FFEE700F042F93F4F4FF000094FF086
:10471000805648B9049838B1502080F31188BFF30F
:104720004F8FBFF36F8FFEE7FFF704FCA06BE16BC9
:10473000884207D3022D05D00498D0B1B8F1000FFC
:104740001AD01EE02A4651462046FEF7B6FF616A9F
:1047500019B104F1240000F0DDF920B13E60BFF38F
:104760004F8FBFF36F8FFFF705FC012006B0BDE848
:10477000F087FFF7FFFB22E06846FFF74FFD4FF0A1
:104780000108FFF7F7FBFFF793FDFFF7D3FB94F961
:104790004400401C01D184F8449094F94500401C29
:1047A00001D184F84590FFF7E5FB04A9684600F0C5
:1047B0008BF830B12046FFF7C9F900F0E5F9002089
:1047C000D4E7FFF7B7FBA06BE16B884213D1FFF78B
:1047D000D1FB04F110000499FFF7AAFC2046FFF773
:1047E000B5F900F0D1F900289ED13E60BFF34F8F9C
:1047F000BFF36F8F98E7FFF7BDFB2046FFF7A6F9E1
:1048000000F0C2F990E7000004ED00E02DE9F04768
:104810001F4690468946040003D0B9F1000F08D026
:1048200011E0502080F31188BFF34F8FBFF36F8FDB
:10483000FEE7206C38B1502080F31188BFF34F8F12
:10484000BFF36F8FFEE7022F0AD1E06B012807D07C
:10485000502080F31188BFF34F8FBFF36F8FFEE7B7
:10486000FFF7DAFB5020EFF3118680F31188BFF3D6
:104870004F8FBFF36F8FA06BE16B884206D3022F7F
:1048800004D0002086F31188BDE8F08794F94550E4
:104890003A4649462046FEF710FF681C04D06D1CBE
:1048A00084F845500120EDE7606A0028FAD004F151
:1048B000240000F02FF90028F4D0B8F1000FF1D057
:1048C0000121C8F80010EDE770B50D46040019D0BD
:1048D00005B3FFF72FFB164AD1682868431C0FD099
:1048E0002368126A934202D062688A421AD96268C7
:1048F000891A814216D2401A28602046FFF78EFCA2
:10490000002410E0502080F31188BFF34F8FBFF3D5
:104910006F8FFEE7502080F31188BFF34F8FBFF3F6
:104920006F8FFEE70124FFF725FB204670BD0000D6
:10493000700000202DE9FF5F8346DDE90E87994670
:1049400016468A469000FFF755F905001AD0542004
:10495000FFF750F9040012D025630021CDE9024190
:10496000CDE900874B46324651465846FEF720FFB8
:104970002046FEF7D7FD012004B0BDE8F09F284691
:10498000FFF70CFB4FF0FF30F6E7000005484169E8
:1049900019B1006B18B10020704701207047022048
:1049A00070470000700000200148C0687047000098
:1049B000700000202DE9F0412E4C0027206B40B103
:1049C000A069401CA061E06900B101273846BDE83C
:1049D000F081E668761CE66013D1606B006838B140
:1049E000502080F31188BFF34F8FBFF36F8FFEE726
:1049F000606BA16B6163A063206A401C2062FFF7BB
:104A000025F8A06ADFF87080864209D3606B0068E1
:104A100080B1606BC068C568686886420DD2A062CC
:104A20002068C06A00EB800158F821000128CAD92B
:104A30000127C8E74FF0FF30F1E7281DFFF736FAEE
:104A4000A86A18B105F11800FFF730FAE86A0121E9
:104A5000226981401143216100EB800108EB810054
:104A6000291DFFF75BFAE86A2168C96A8842CDD33D
:104A70000127CBE770000020D402002070B50400AD
:104A80004FF0000140D0214D2868844207D05020CB
:104A900080F31188BFF34F8FBFF36F8FFEE7A06CD9
:104AA00038B1401EA064636CE26A9A422CD040B1D7
:104AB0002AE0502080F31188BFF34F8FBFF36F8F30
:104AC000FEE7201DFFF7F2F9114A012150B9E06A13
:104AD00000EB800352F8233023B92B6901FA00F070
:104AE00083432B61606CE062C0F10700A061E06A63
:104AF0002B6981401943296100EB800002EB8000A3
:104B0000211DFFF70BFA0121084670BD700000203F
:104B1000D40200202DE9F041C068C468ACB104F1B2
:104B200018000746FFF7C2F9154D286B0126A0B102
:104B300039461448FFF7F2F9E06A2968C96A8842E1
:104B40001CD90120EE61BDE8F081502080F311886E
:104B5000BFF34F8FBFF36F8FFEE7201DFFF7A6F95E
:104B6000E16A2A6906FA01F01043286101EB81002D
:104B70000449B43901EB8000211DDBE70020E2E7A6
:104B800070000020880300202DE9F0472C4D002400
:104B90002746286B38B1FFF7CDF9286B401E2863F4
:104BA000286B40B146E0502080F31188BFF34F8F4F
:104BB000BFF36F8FFEE7A968224E0120D1B3A6F1A3
:104BC000B40980463068E8B1F068C46804F11800A0
:104BD000FFF76CF9201DFFF769F9E06A2A6908FA06
:104BE00000F11143296100EB800109EB8100211DD7
:104BF000FFF794F9E06A2968C96A8842E2D3C5F8E8
:104C00001C80DFE70CB1FEF721FFAC6944B14646DA
:104C1000FFF7D0FE00B1EE61641EF9D10020A8615B
:104C2000E86938B10849012738070860BFF34F8F9A
:104C3000BFF36F8FFFF79EF93846BDE8F08700009D
:104C4000700000208803002004ED00E02DE9F0470B
:104C50000746994616460D462820DDF820A0FEF7A7
:104C6000C9FF04000ED0B8464F46D1466DB1FEF7DD
:104C7000C1FC04F11801C4F8008081E8E002201DA5
:104C8000FFF731F92046BDE8F087502080F3118806
:104C9000BFF34F8FBFF36F8FFEE700001CB5FEF729
:104CA000A9FC0C48006860B10A490220091DCDE941
:104CB0000001C201002308A10948FFF73BFE0028BC
:104CC00007D1502080F31188BFF34F8FBFF36F8F50
:104CD000FEE71CBDAC000020546D722053766300CB
:104CE000293B0008FEB51E4613460200089D4FF002
:104CF000000014D0124C2768002F0FD0CDE900130C
:104D00000292062915DAFFF741FE02284FF0000350
:104D10000DD0002269462068FFF7C8FCFEBD502078
:104D200080F31188BFF34F8FBFF36F8FFEE72A46E2
:104D3000F0E70023324669463846FFF767FDFEBDBF
:104D4000AC000020C9030008E10300083132334100
:104D500034353642373839432A302344084E000868
:104D60005F2000080000000000000000800000003C
:104D7000EC4D0008911F0008FFFF0000000000003C
:104D800080000000004E00084D2E000800000000CA
:104D90000000000080000000F04D0008B91D000870
:104DA000000000000000000080000000F44D00083A
:104DB0003504000802000000000000008000000030
:104DC000FC4D0008992600080000000000000000CB
:104DD0008000000000000000000000000102030449
:104DE00006070809000000000102030452544300B2
:104DF0004C434400454550524F4D00004553500030
:104E00004B6579706164000064656661756C74540B
:104E100061736B00344E000800000020E8000000C1
:104E2000FC2600081C4F0008E80000200843000092
:104E30000C27000801000000000000000000000036
:104E40000000000000000000000000000100000061
:104E50000000000000000000000000000000000052
:104E60000000000000000000000000000000000042
:104E70000000000000000000000000000000000032
:104E800000000000000000005555666677770001BD
:104E90000000000001000000100000000000000001
:104EA0000024F400000000000000000000000000EA
:104EB00000000000000000000000000000000000F2
:104EC00000000000000000000000000000000000E2
:104ED00000000000000000000000000000000000D2
:104EE00000000000000000000000000000000000C2
:104EF00000000000000000000000000000000000B2
:104F000000000000000000000000000000000000A1
:0C4F1000AAAAAAAA0000000000000000ED
:040000050800018965
:00000001FF
